{
  "_format": "hh-sol-artifact-1",
  "contractName": "VotingApplication",
  "sourceName": "contracts/VotingApplication.sol",
  "abi": [
    {
      "inputs": [],
      "stateMutability": "nonpayable",
      "type": "constructor"
    },
    {
      "anonymous": false,
      "inputs": [
        {
          "indexed": false,
          "internalType": "uint256",
          "name": "pollId",
          "type": "uint256"
        },
        {
          "indexed": false,
          "internalType": "address",
          "name": "pollAddress",
          "type": "address"
        }
      ],
      "name": "PollCreated",
      "type": "event"
    },
    {
      "inputs": [
        {
          "components": [
            {
              "internalType": "string",
              "name": "id",
              "type": "string"
            },
            {
              "internalType": "bool",
              "name": "realTimeTally",
              "type": "bool"
            },
            {
              "internalType": "bool",
              "name": "isStartAutomated",
              "type": "bool"
            },
            {
              "internalType": "bool",
              "name": "isEndAutomated",
              "type": "bool"
            },
            {
              "internalType": "uint256",
              "name": "startTime",
              "type": "uint256"
            },
            {
              "internalType": "uint256",
              "name": "endTime",
              "type": "uint256"
            },
            {
              "components": [
                {
                  "internalType": "string",
                  "name": "id",
                  "type": "string"
                },
                {
                  "internalType": "string",
                  "name": "name",
                  "type": "string"
                },
                {
                  "internalType": "string",
                  "name": "description",
                  "type": "string"
                }
              ],
              "internalType": "struct Poll.Candidate[]",
              "name": "candidates",
              "type": "tuple[]"
            },
            {
              "internalType": "address[]",
              "name": "eligibleVoters",
              "type": "address[]"
            }
          ],
          "internalType": "struct Poll.PollStruct",
          "name": "_poll",
          "type": "tuple"
        }
      ],
      "name": "createPoll",
      "outputs": [],
      "stateMutability": "nonpayable",
      "type": "function"
    },
    {
      "inputs": [],
      "name": "getYourPolls",
      "outputs": [
        {
          "internalType": "string[]",
          "name": "",
          "type": "string[]"
        }
      ],
      "stateMutability": "view",
      "type": "function"
    },
    {
      "inputs": [],
      "name": "pollCount",
      "outputs": [
        {
          "internalType": "uint256",
          "name": "",
          "type": "uint256"
        }
      ],
      "stateMutability": "view",
      "type": "function"
    },
    {
      "inputs": [
        {
          "internalType": "string",
          "name": "",
          "type": "string"
        }
      ],
      "name": "polls",
      "outputs": [
        {
          "internalType": "address",
          "name": "",
          "type": "address"
        }
      ],
      "stateMutability": "view",
      "type": "function"
    },
    {
      "inputs": [
        {
          "internalType": "address",
          "name": "",
          "type": "address"
        },
        {
          "internalType": "uint256",
          "name": "",
          "type": "uint256"
        }
      ],
      "name": "pollsByOwners",
      "outputs": [
        {
          "internalType": "string",
          "name": "",
          "type": "string"
        }
      ],
      "stateMutability": "view",
      "type": "function"
    }
  ],
  "bytecode": "0x6080604052348015600f57600080fd5b50600080819055506137db806100266000396000f3fe608060405234801561001057600080fd5b50600436106100575760003560e01c8063338a0ac31461005c578063605635fd1461007a5780638058316a146100aa5780639207891d146100da5780639ea1731c146100f8575b600080fd5b610064610114565b60405161007191906105f8565b60405180910390f35b610094600480360381019061008f91906106c2565b61022a565b6040516100a1919061074c565b60405180910390f35b6100c460048036038101906100bf91906108a3565b6102e3565b6040516100d191906108fb565b60405180910390f35b6100e261032c565b6040516100ef9190610925565b60405180910390f35b610112600480360381019061010d9190610d01565b610332565b005b6060600260003373ffffffffffffffffffffffffffffffffffffffff1673ffffffffffffffffffffffffffffffffffffffff168152602001908152602001600020805480602002602001604051908101604052809291908181526020016000905b8282101561022157838290600052602060002001805461019490610d79565b80601f01602080910402602001604051908101604052809291908181526020018280546101c090610d79565b801561020d5780601f106101e25761010080835404028352916020019161020d565b820191906000526020600020905b8154815290600101906020018083116101f057829003601f168201915b505050505081526020019060010190610175565b50505050905090565b6002602052816000526040600020818154811061024657600080fd5b9060005260206000200160009150915050805461026290610d79565b80601f016020809104026020016040519081016040528092919081815260200182805461028e90610d79565b80156102db5780601f106102b0576101008083540402835291602001916102db565b820191906000526020600020905b8154815290600101906020018083116102be57829003601f168201915b505050505081565b6001818051602081018201805184825260208301602085012081835280955050505050506000915054906101000a900473ffffffffffffffffffffffffffffffffffffffff1681565b60005481565b60008081548092919061034490610dd9565b91905055506000338260405161035990610499565b6103649291906110db565b604051809103906000f080158015610380573d6000803e3d6000fd5b50905080600183600001516040516103989190611147565b908152602001604051809103902060006101000a81548173ffffffffffffffffffffffffffffffffffffffff021916908373ffffffffffffffffffffffffffffffffffffffff160217905550600260003373ffffffffffffffffffffffffffffffffffffffff1673ffffffffffffffffffffffffffffffffffffffff1681526020019081526020016000208260000151908060018154018082558091505060019003906000526020600020016000909190919091509081610459919061130a565b507fb447d309fd3b1a27466cdb08ccc02ee5188e9c71fc58af042bafe3e0bb4512306000548260405161048d9291906113dc565b60405180910390a15050565b6123a08061140683390190565b600081519050919050565b600082825260208201905092915050565b6000819050602082019050919050565b600081519050919050565b600082825260208201905092915050565b60005b8381101561050c5780820151818401526020810190506104f1565b60008484015250505050565b6000601f19601f8301169050919050565b6000610534826104d2565b61053e81856104dd565b935061054e8185602086016104ee565b61055781610518565b840191505092915050565b600061056e8383610529565b905092915050565b6000602082019050919050565b600061058e826104a6565b61059881856104b1565b9350836020820285016105aa856104c2565b8060005b858110156105e657848403895281516105c78582610562565b94506105d283610576565b925060208a019950506001810190506105ae565b50829750879550505050505092915050565b600060208201905081810360008301526106128184610583565b905092915050565b6000604051905090565b600080fd5b600080fd5b600073ffffffffffffffffffffffffffffffffffffffff82169050919050565b60006106598261062e565b9050919050565b6106698161064e565b811461067457600080fd5b50565b60008135905061068681610660565b92915050565b6000819050919050565b61069f8161068c565b81146106aa57600080fd5b50565b6000813590506106bc81610696565b92915050565b600080604083850312156106d9576106d8610624565b5b60006106e785828601610677565b92505060206106f8858286016106ad565b9150509250929050565b600082825260208201905092915050565b600061071e826104d2565b6107288185610702565b93506107388185602086016104ee565b61074181610518565b840191505092915050565b600060208201905081810360008301526107668184610713565b905092915050565b600080fd5b600080fd5b7f4e487b7100000000000000000000000000000000000000000000000000000000600052604160045260246000fd5b6107b082610518565b810181811067ffffffffffffffff821117156107cf576107ce610778565b5b80604052505050565b60006107e261061a565b90506107ee82826107a7565b919050565b600067ffffffffffffffff82111561080e5761080d610778565b5b61081782610518565b9050602081019050919050565b82818337600083830152505050565b6000610846610841846107f3565b6107d8565b90508281526020810184848401111561086257610861610773565b5b61086d848285610824565b509392505050565b600082601f83011261088a5761088961076e565b5b813561089a848260208601610833565b91505092915050565b6000602082840312156108b9576108b8610624565b5b600082013567ffffffffffffffff8111156108d7576108d6610629565b5b6108e384828501610875565b91505092915050565b6108f58161064e565b82525050565b600060208201905061091060008301846108ec565b92915050565b61091f8161068c565b82525050565b600060208201905061093a6000830184610916565b92915050565b600080fd5b600080fd5b60008115159050919050565b61095f8161094a565b811461096a57600080fd5b50565b60008135905061097c81610956565b92915050565b600067ffffffffffffffff82111561099d5761099c610778565b5b602082029050602081019050919050565b600080fd5b6000606082840312156109c9576109c8610940565b5b6109d360606107d8565b9050600082013567ffffffffffffffff8111156109f3576109f2610945565b5b6109ff84828501610875565b600083015250602082013567ffffffffffffffff811115610a2357610a22610945565b5b610a2f84828501610875565b602083015250604082013567ffffffffffffffff811115610a5357610a52610945565b5b610a5f84828501610875565b60408301525092915050565b6000610a7e610a7984610982565b6107d8565b90508083825260208201905060208402830185811115610aa157610aa06109ae565b5b835b81811015610ae857803567ffffffffffffffff811115610ac657610ac561076e565b5b808601610ad389826109b3565b85526020850194505050602081019050610aa3565b5050509392505050565b600082601f830112610b0757610b0661076e565b5b8135610b17848260208601610a6b565b91505092915050565b600067ffffffffffffffff821115610b3b57610b3a610778565b5b602082029050602081019050919050565b6000610b5f610b5a84610b20565b6107d8565b90508083825260208201905060208402830185811115610b8257610b816109ae565b5b835b81811015610bab5780610b978882610677565b845260208401935050602081019050610b84565b5050509392505050565b600082601f830112610bca57610bc961076e565b5b8135610bda848260208601610b4c565b91505092915050565b60006101008284031215610bfa57610bf9610940565b5b610c056101006107d8565b9050600082013567ffffffffffffffff811115610c2557610c24610945565b5b610c3184828501610875565b6000830152506020610c458482850161096d565b6020830152506040610c598482850161096d565b6040830152506060610c6d8482850161096d565b6060830152506080610c81848285016106ad565b60808301525060a0610c95848285016106ad565b60a08301525060c082013567ffffffffffffffff811115610cb957610cb8610945565b5b610cc584828501610af2565b60c08301525060e082013567ffffffffffffffff811115610ce957610ce8610945565b5b610cf584828501610bb5565b60e08301525092915050565b600060208284031215610d1757610d16610624565b5b600082013567ffffffffffffffff811115610d3557610d34610629565b5b610d4184828501610be3565b91505092915050565b7f4e487b7100000000000000000000000000000000000000000000000000000000600052602260045260246000fd5b60006002820490506001821680610d9157607f821691505b602082108103610da457610da3610d4a565b5b50919050565b7f4e487b7100000000000000000000000000000000000000000000000000000000600052601160045260246000fd5b6000610de48261068c565b91507fffffffffffffffffffffffffffffffffffffffffffffffffffffffffffffffff8203610e1657610e15610daa565b5b600182019050919050565b610e2a8161094a565b82525050565b610e398161068c565b82525050565b600081519050919050565b600082825260208201905092915050565b6000819050602082019050919050565b60006060830160008301518482036000860152610e888282610529565b91505060208301518482036020860152610ea28282610529565b91505060408301518482036040860152610ebc8282610529565b9150508091505092915050565b6000610ed58383610e6b565b905092915050565b6000602082019050919050565b6000610ef582610e3f565b610eff8185610e4a565b935083602082028501610f1185610e5b565b8060005b85811015610f4d5784840389528151610f2e8582610ec9565b9450610f3983610edd565b925060208a01995050600181019050610f15565b50829750879550505050505092915050565b600081519050919050565b600082825260208201905092915050565b6000819050602082019050919050565b610f948161064e565b82525050565b6000610fa68383610f8b565b60208301905092915050565b6000602082019050919050565b6000610fca82610f5f565b610fd48185610f6a565b9350610fdf83610f7b565b8060005b83811015611010578151610ff78882610f9a565b975061100283610fb2565b925050600181019050610fe3565b5085935050505092915050565b600061010083016000830151848203600086015261103b8282610529565b91505060208301516110506020860182610e21565b5060408301516110636040860182610e21565b5060608301516110766060860182610e21565b5060808301516110896080860182610e30565b5060a083015161109c60a0860182610e30565b5060c083015184820360c08601526110b48282610eea565b91505060e083015184820360e08601526110ce8282610fbf565b9150508091505092915050565b60006040820190506110f060008301856108ec565b8181036020830152611102818461101d565b90509392505050565b600081905092915050565b6000611121826104d2565b61112b818561110b565b935061113b8185602086016104ee565b80840191505092915050565b60006111538284611116565b915081905092915050565b60008190508160005260206000209050919050565b60006020601f8301049050919050565b600082821b905092915050565b6000600883026111c07fffffffffffffffffffffffffffffffffffffffffffffffffffffffffffffffff82611183565b6111ca8683611183565b95508019841693508086168417925050509392505050565b6000819050919050565b60006112076112026111fd8461068c565b6111e2565b61068c565b9050919050565b6000819050919050565b611221836111ec565b61123561122d8261120e565b848454611190565b825550505050565b600090565b61124a61123d565b611255818484611218565b505050565b5b818110156112795761126e600082611242565b60018101905061125b565b5050565b601f8211156112be5761128f8161115e565b61129884611173565b810160208510156112a7578190505b6112bb6112b385611173565b83018261125a565b50505b505050565b600082821c905092915050565b60006112e1600019846008026112c3565b1980831691505092915050565b60006112fa83836112d0565b9150826002028217905092915050565b611313826104d2565b67ffffffffffffffff81111561132c5761132b610778565b5b6113368254610d79565b61134182828561127d565b600060209050601f8311600181146113745760008415611362578287015190505b61136c85826112ee565b8655506113d4565b601f1984166113828661115e565b60005b828110156113aa57848901518255600182019150602085019450602081019050611385565b868310156113c757848901516113c3601f8916826112d0565b8355505b6001600288020188555050505b505050505050565b60006040820190506113f16000830185610916565b6113fe60208301846108ec565b939250505056fe608060405234801561001057600080fd5b506040516123a03803806123a08339818101604052810190610032919061092d565b816000806101000a81548173ffffffffffffffffffffffffffffffffffffffff021916908373ffffffffffffffffffffffffffffffffffffffff1602179055508060000151600190816100859190610ba0565b508060200151600260006101000a81548160ff02191690831515021790555060006003819055507fffffffffffffffffffffffffffffffffffffffffffffffffffffffffffffffff6004819055508060400151156100e95780608001516003819055505b8060600151156100ff578060a001516004819055505b600060058190555060005b8160c00151518110156102795760055460068360c00151838151811061013357610132610c72565b5b60200260200101516000015160405161014c9190610cdd565b90815260200160405180910390208190555060405180606001604052808360c0015183815181106101805761017f610c72565b5b60200260200101516000015181526020018360c0015183815181106101a8576101a7610c72565b5b60200260200101516020015181526020018360c0015183815181106101d0576101cf610c72565b5b60200260200101516040015181525060076000600554815260200190815260200160002060008201518160000190816102099190610ba0565b50602082015181600101908161021f9190610ba0565b5060408201518160020190816102359190610ba0565b509050506000600a60006005548152602001908152602001600020819055506005600081548092919061026790610d23565b9190505550808060010191505061010a565b5060005b8160e001515181101561030d576001600860008460e0015184815181106102a7576102a6610c72565b5b602002602001015173ffffffffffffffffffffffffffffffffffffffff1673ffffffffffffffffffffffffffffffffffffffff16815260200190815260200160002060006101000a81548160ff021916908315150217905550808060010191505061027d565b507fb55e5ee3ad76b1fababdba156ab1087e9fa631d9b8a7c9966f5614605e2449d3600260009054906101000a900460ff1660035460045460405161035493929190610d89565b60405180910390a15050610dc0565b6000604051905090565b600080fd5b600080fd5b600073ffffffffffffffffffffffffffffffffffffffff82169050919050565b60006103a282610377565b9050919050565b6103b281610397565b81146103bd57600080fd5b50565b6000815190506103cf816103a9565b92915050565b600080fd5b6000601f19601f8301169050919050565b7f4e487b7100000000000000000000000000000000000000000000000000000000600052604160045260246000fd5b610423826103da565b810181811067ffffffffffffffff82111715610442576104416103eb565b5b80604052505050565b6000610455610363565b9050610461828261041a565b919050565b600080fd5b600080fd5b600080fd5b600067ffffffffffffffff8211156104905761048f6103eb565b5b610499826103da565b9050602081019050919050565b60005b838110156104c45780820151818401526020810190506104a9565b60008484015250505050565b60006104e36104de84610475565b61044b565b9050828152602081018484840111156104ff576104fe610470565b5b61050a8482856104a6565b509392505050565b600082601f8301126105275761052661046b565b5b81516105378482602086016104d0565b91505092915050565b60008115159050919050565b61055581610540565b811461056057600080fd5b50565b6000815190506105728161054c565b92915050565b6000819050919050565b61058b81610578565b811461059657600080fd5b50565b6000815190506105a881610582565b92915050565b600067ffffffffffffffff8211156105c9576105c86103eb565b5b602082029050602081019050919050565b600080fd5b6000606082840312156105f5576105f46103d5565b5b6105ff606061044b565b9050600082015167ffffffffffffffff81111561061f5761061e610466565b5b61062b84828501610512565b600083015250602082015167ffffffffffffffff81111561064f5761064e610466565b5b61065b84828501610512565b602083015250604082015167ffffffffffffffff81111561067f5761067e610466565b5b61068b84828501610512565b60408301525092915050565b60006106aa6106a5846105ae565b61044b565b905080838252602082019050602084028301858111156106cd576106cc6105da565b5b835b8181101561071457805167ffffffffffffffff8111156106f2576106f161046b565b5b8086016106ff89826105df565b855260208501945050506020810190506106cf565b5050509392505050565b600082601f8301126107335761073261046b565b5b8151610743848260208601610697565b91505092915050565b600067ffffffffffffffff821115610767576107666103eb565b5b602082029050602081019050919050565b600061078b6107868461074c565b61044b565b905080838252602082019050602084028301858111156107ae576107ad6105da565b5b835b818110156107d757806107c388826103c0565b8452602084019350506020810190506107b0565b5050509392505050565b600082601f8301126107f6576107f561046b565b5b8151610806848260208601610778565b91505092915050565b60006101008284031215610826576108256103d5565b5b61083161010061044b565b9050600082015167ffffffffffffffff81111561085157610850610466565b5b61085d84828501610512565b600083015250602061087184828501610563565b602083015250604061088584828501610563565b604083015250606061089984828501610563565b60608301525060806108ad84828501610599565b60808301525060a06108c184828501610599565b60a08301525060c082015167ffffffffffffffff8111156108e5576108e4610466565b5b6108f18482850161071e565b60c08301525060e082015167ffffffffffffffff81111561091557610914610466565b5b610921848285016107e1565b60e08301525092915050565b600080604083850312156109445761094361036d565b5b6000610952858286016103c0565b925050602083015167ffffffffffffffff81111561097357610972610372565b5b61097f8582860161080f565b9150509250929050565b600081519050919050565b7f4e487b7100000000000000000000000000000000000000000000000000000000600052602260045260246000fd5b600060028204905060018216806109db57607f821691505b6020821081036109ee576109ed610994565b5b50919050565b60008190508160005260206000209050919050565b60006020601f8301049050919050565b600082821b905092915050565b600060088302610a567fffffffffffffffffffffffffffffffffffffffffffffffffffffffffffffffff82610a19565b610a608683610a19565b95508019841693508086168417925050509392505050565b6000819050919050565b6000610a9d610a98610a9384610578565b610a78565b610578565b9050919050565b6000819050919050565b610ab783610a82565b610acb610ac382610aa4565b848454610a26565b825550505050565b600090565b610ae0610ad3565b610aeb818484610aae565b505050565b5b81811015610b0f57610b04600082610ad8565b600181019050610af1565b5050565b601f821115610b5457610b25816109f4565b610b2e84610a09565b81016020851015610b3d578190505b610b51610b4985610a09565b830182610af0565b50505b505050565b600082821c905092915050565b6000610b7760001984600802610b59565b1980831691505092915050565b6000610b908383610b66565b9150826002028217905092915050565b610ba982610989565b67ffffffffffffffff811115610bc257610bc16103eb565b5b610bcc82546109c3565b610bd7828285610b13565b600060209050601f831160018114610c0a5760008415610bf8578287015190505b610c028582610b84565b865550610c6a565b601f198416610c18866109f4565b60005b82811015610c4057848901518255600182019150602085019450602081019050610c1b565b86831015610c5d5784890151610c59601f891682610b66565b8355505b6001600288020188555050505b505050505050565b7f4e487b7100000000000000000000000000000000000000000000000000000000600052603260045260246000fd5b600081905092915050565b6000610cb782610989565b610cc18185610ca1565b9350610cd18185602086016104a6565b80840191505092915050565b6000610ce98284610cac565b915081905092915050565b7f4e487b7100000000000000000000000000000000000000000000000000000000600052601160045260246000fd5b6000610d2e82610578565b91507fffffffffffffffffffffffffffffffffffffffffffffffffffffffffffffffff8203610d6057610d5f610cf4565b5b600182019050919050565b610d7481610540565b82525050565b610d8381610578565b82525050565b6000606082019050610d9e6000830186610d6b565b610dab6020830185610d7a565b610db86040830184610d7a565b949350505050565b6115d180610dcf6000396000f3fe608060405234801561001057600080fd5b50600436106100cf5760003560e01c806378e979251161008c578063a9a981a311610066578063a9a981a314610206578063af640d0f14610224578063ef0a693014610242578063f43b877814610272576100cf565b806378e979251461019a5780638da5cb5b146101b8578063995e4339146101d6576100cf565b8063049e45d7146100d4578063222ef0ef146100f25780633197cbb614610110578063341f7b331461012e5780633477ee2e1461014a57806362f269ca1461017c575b600080fd5b6100dc61028e565b6040516100e99190610bb8565b60405180910390f35b6100fa6102e2565b6040516101079190610bb8565b60405180910390f35b610118610336565b6040516101259190610bec565b60405180910390f35b61014860048036038101906101439190610d8d565b61033c565b005b610164600480360381019061015f9190610de9565b6105dd565b60405161017393929190610e95565b60405180910390f35b61018461079f565b6040516101919190610bb8565b60405180910390f35b6101a26107b2565b6040516101af9190610bec565b60405180910390f35b6101c06107b8565b6040516101cd9190610f22565b60405180910390f35b6101f060048036038101906101eb9190610de9565b6107dc565b6040516101fd9190611095565b60405180910390f35b61020e610a29565b60405161021b9190610bec565b60405180910390f35b61022c610a2f565b60405161023991906110b7565b60405180910390f35b61025c600480360381019061025791906110d9565b610abd565b6040516102699190610bec565b60405180910390f35b61028c60048036038101906102879190610de9565b610aeb565b005b6000600860003373ffffffffffffffffffffffffffffffffffffffff1673ffffffffffffffffffffffffffffffffffffffff16815260200190815260200160002060009054906101000a900460ff16905090565b6000600960003373ffffffffffffffffffffffffffffffffffffffff1673ffffffffffffffffffffffffffffffffffffffff16815260200190815260200160002060009054906101000a900460ff16905090565b60045481565b80600354811015610382576040517f08c379a00000000000000000000000000000000000000000000000000000000081526004016103799061116e565b60405180910390fd5b6004548111156103c7576040517f08c379a00000000000000000000000000000000000000000000000000000000081526004016103be906111da565b60405180910390fd5b600860003373ffffffffffffffffffffffffffffffffffffffff1673ffffffffffffffffffffffffffffffffffffffff16815260200190815260200160002060009054906101000a900460ff16610453576040517f08c379a000000000000000000000000000000000000000000000000000000000815260040161044a9061126c565b60405180910390fd5b60001515600960003373ffffffffffffffffffffffffffffffffffffffff1673ffffffffffffffffffffffffffffffffffffffff16815260200190815260200160002060009054906101000a900460ff161515146104e6576040517f08c379a00000000000000000000000000000000000000000000000000000000081526004016104dd906112fe565b60405180910390fd5b60006006846040516104f8919061135a565b90815260200160405180910390205490506000600a6000838152602001908152602001600020549050808061052c906113a0565b9150506001600960003373ffffffffffffffffffffffffffffffffffffffff1673ffffffffffffffffffffffffffffffffffffffff16815260200190815260200160002060006101000a81548160ff02191690831515021790555080600a6000848152602001908152602001600020819055507fcbb901adca9be6fa979eb3013c899a7263fc9c5ecbe525a15ce38c568ca30307856040516105ce91906110b7565b60405180910390a15050505050565b600760205280600052604060002060009150905080600001805461060090611417565b80601f016020809104026020016040519081016040528092919081815260200182805461062c90611417565b80156106795780601f1061064e57610100808354040283529160200191610679565b820191906000526020600020905b81548152906001019060200180831161065c57829003601f168201915b50505050509080600101805461068e90611417565b80601f01602080910402602001604051908101604052809291908181526020018280546106ba90611417565b80156107075780601f106106dc57610100808354040283529160200191610707565b820191906000526020600020905b8154815290600101906020018083116106ea57829003601f168201915b50505050509080600201805461071c90611417565b80601f016020809104026020016040519081016040528092919081815260200182805461074890611417565b80156107955780601f1061076a57610100808354040283529160200191610795565b820191906000526020600020905b81548152906001019060200180831161077857829003601f168201915b5050505050905083565b600260009054906101000a900460ff1681565b60035481565b60008054906101000a900473ffffffffffffffffffffffffffffffffffffffff1681565b606081600260009054906101000a900460ff16610838576004548111610837576040517f08c379a000000000000000000000000000000000000000000000000000000000815260040161082e906114ba565b60405180910390fd5b5b60008054906101000a900473ffffffffffffffffffffffffffffffffffffffff1673ffffffffffffffffffffffffffffffffffffffff163373ffffffffffffffffffffffffffffffffffffffff16146108c6576040517f08c379a00000000000000000000000000000000000000000000000000000000081526004016108bd9061154c565b60405180910390fd5b600060055467ffffffffffffffff8111156108e4576108e3610c36565b5b60405190808252806020026020018201604052801561091d57816020015b61090a610b83565b8152602001906001900390816109025790505b50905060005b600554811015610a1e57604051806040016040528060076000848152602001908152602001600020600001805461095990611417565b80601f016020809104026020016040519081016040528092919081815260200182805461098590611417565b80156109d25780601f106109a7576101008083540402835291602001916109d2565b820191906000526020600020905b8154815290600101906020018083116109b557829003601f168201915b50505050508152602001600a600084815260200190815260200160002054815250828281518110610a0657610a0561156c565b5b60200260200101819052508080600101915050610923565b508092505050919050565b60055481565b60018054610a3c90611417565b80601f0160208091040260200160405190810160405280929190818152602001828054610a6890611417565b8015610ab55780601f10610a8a57610100808354040283529160200191610ab5565b820191906000526020600020905b815481529060010190602001808311610a9857829003601f168201915b505050505081565b6006818051602081018201805184825260208301602085012081835280955050505050506000915090505481565b60008054906101000a900473ffffffffffffffffffffffffffffffffffffffff1673ffffffffffffffffffffffffffffffffffffffff163373ffffffffffffffffffffffffffffffffffffffff1614610b79576040517f08c379a0000000000000000000000000000000000000000000000000000000008152600401610b709061154c565b60405180910390fd5b8060048190555050565b604051806040016040528060608152602001600081525090565b60008115159050919050565b610bb281610b9d565b82525050565b6000602082019050610bcd6000830184610ba9565b92915050565b6000819050919050565b610be681610bd3565b82525050565b6000602082019050610c016000830184610bdd565b92915050565b6000604051905090565b600080fd5b600080fd5b600080fd5b600080fd5b6000601f19601f8301169050919050565b7f4e487b7100000000000000000000000000000000000000000000000000000000600052604160045260246000fd5b610c6e82610c25565b810181811067ffffffffffffffff82111715610c8d57610c8c610c36565b5b80604052505050565b6000610ca0610c07565b9050610cac8282610c65565b919050565b600067ffffffffffffffff821115610ccc57610ccb610c36565b5b610cd582610c25565b9050602081019050919050565b82818337600083830152505050565b6000610d04610cff84610cb1565b610c96565b905082815260208101848484011115610d2057610d1f610c20565b5b610d2b848285610ce2565b509392505050565b600082601f830112610d4857610d47610c1b565b5b8135610d58848260208601610cf1565b91505092915050565b610d6a81610bd3565b8114610d7557600080fd5b50565b600081359050610d8781610d61565b92915050565b60008060408385031215610da457610da3610c11565b5b600083013567ffffffffffffffff811115610dc257610dc1610c16565b5b610dce85828601610d33565b9250506020610ddf85828601610d78565b9150509250929050565b600060208284031215610dff57610dfe610c11565b5b6000610e0d84828501610d78565b91505092915050565b600081519050919050565b600082825260208201905092915050565b60005b83811015610e50578082015181840152602081019050610e35565b60008484015250505050565b6000610e6782610e16565b610e718185610e21565b9350610e81818560208601610e32565b610e8a81610c25565b840191505092915050565b60006060820190508181036000830152610eaf8186610e5c565b90508181036020830152610ec38185610e5c565b90508181036040830152610ed78184610e5c565b9050949350505050565b600073ffffffffffffffffffffffffffffffffffffffff82169050919050565b6000610f0c82610ee1565b9050919050565b610f1c81610f01565b82525050565b6000602082019050610f376000830184610f13565b92915050565b600081519050919050565b600082825260208201905092915050565b6000819050602082019050919050565b600082825260208201905092915050565b6000610f8582610e16565b610f8f8185610f69565b9350610f9f818560208601610e32565b610fa881610c25565b840191505092915050565b610fbc81610bd3565b82525050565b60006040830160008301518482036000860152610fdf8282610f7a565b9150506020830151610ff46020860182610fb3565b508091505092915050565b600061100b8383610fc2565b905092915050565b6000602082019050919050565b600061102b82610f3d565b6110358185610f48565b93508360208202850161104785610f59565b8060005b8581101561108357848403895281516110648582610fff565b945061106f83611013565b925060208a0199505060018101905061104b565b50829750879550505050505092915050565b600060208201905081810360008301526110af8184611020565b905092915050565b600060208201905081810360008301526110d18184610e5c565b905092915050565b6000602082840312156110ef576110ee610c11565b5b600082013567ffffffffffffffff81111561110d5761110c610c16565b5b61111984828501610d33565b91505092915050565b7f5468697320706f6c6c20686173206e6f74207374617274656420796574000000600082015250565b6000611158601d83610e21565b915061116382611122565b602082019050919050565b600060208201905081810360008301526111878161114b565b9050919050565b7f5468697320706f6c6c2068617320616c726561647920656e6465640000000000600082015250565b60006111c4601b83610e21565b91506111cf8261118e565b602082019050919050565b600060208201905081810360008301526111f3816111b7565b9050919050565b7f4f6e6c7920656c696769626c6520766f746572732061726520616c6c6f77656460008201527f20746f2061636365737320746869732066656174757265000000000000000000602082015250565b6000611256603783610e21565b9150611261826111fa565b604082019050919050565b6000602082019050818103600083015261128581611249565b9050919050565b7f596f752063616e206f6e6c792075736520746869732066656174757265206f6e60008201527f6365000000000000000000000000000000000000000000000000000000000000602082015250565b60006112e8602283610e21565b91506112f38261128c565b604082019050919050565b60006020820190508181036000830152611317816112db565b9050919050565b600081905092915050565b600061133482610e16565b61133e818561131e565b935061134e818560208601610e32565b80840191505092915050565b60006113668284611329565b915081905092915050565b7f4e487b7100000000000000000000000000000000000000000000000000000000600052601160045260246000fd5b60006113ab82610bd3565b91507fffffffffffffffffffffffffffffffffffffffffffffffffffffffffffffffff82036113dd576113dc611371565b5b600182019050919050565b7f4e487b7100000000000000000000000000000000000000000000000000000000600052602260045260246000fd5b6000600282049050600182168061142f57607f821691505b602082108103611442576114416113e8565b5b50919050565b7f5265616c2074696d652074616c6c792069732063757272656e746c79206e6f7460008201527f20617661696c61626c6500000000000000000000000000000000000000000000602082015250565b60006114a4602a83610e21565b91506114af82611448565b604082019050919050565b600060208201905081810360008301526114d381611497565b9050919050565b7f4f6e6c79206f776e657220697320616c6c6f77656420746f206163636573732060008201527f7468697320666561747572650000000000000000000000000000000000000000602082015250565b6000611536602c83610e21565b9150611541826114da565b604082019050919050565b6000602082019050818103600083015261156581611529565b9050919050565b7f4e487b7100000000000000000000000000000000000000000000000000000000600052603260045260246000fdfea2646970667358221220043e9d66451d3cbbc20d0ddc7ea6f745b846408fcd597b10734af3bc85b230a064736f6c634300081c0033a2646970667358221220efe26ffc9dcc23fda39955f053ef7239a79c8747d3e254e388346e13035e283264736f6c634300081c0033",
  "linkReferences": {},
  "deployedLinkReferences": {}
}