{
  "_format": "hh-sol-artifact-1",
  "contractName": "VotingApplication",
  "sourceName": "contracts/VotingApplication.sol",
  "abi": [
    {
      "inputs": [],
      "stateMutability": "nonpayable",
      "type": "constructor"
    },
    {
      "anonymous": false,
      "inputs": [
        {
          "indexed": false,
          "internalType": "uint256",
          "name": "pollId",
          "type": "uint256"
        },
        {
          "indexed": false,
          "internalType": "address",
          "name": "pollAddress",
          "type": "address"
        }
      ],
      "name": "PollCreated",
      "type": "event"
    },
    {
      "inputs": [
        {
          "components": [
            {
              "internalType": "string",
              "name": "id",
              "type": "string"
            },
            {
              "internalType": "bool",
              "name": "realTimeTally",
              "type": "bool"
            },
            {
              "internalType": "bool",
              "name": "isStartAutomated",
              "type": "bool"
            },
            {
              "internalType": "bool",
              "name": "isEndAutomated",
              "type": "bool"
            },
            {
              "internalType": "uint256",
              "name": "startTime",
              "type": "uint256"
            },
            {
              "internalType": "uint256",
              "name": "endTime",
              "type": "uint256"
            },
            {
              "components": [
                {
                  "internalType": "string",
                  "name": "id",
                  "type": "string"
                },
                {
                  "internalType": "string",
                  "name": "name",
                  "type": "string"
                },
                {
                  "internalType": "string",
                  "name": "description",
                  "type": "string"
                }
              ],
              "internalType": "struct Poll.Candidate[]",
              "name": "candidates",
              "type": "tuple[]"
            },
            {
              "internalType": "address[]",
              "name": "eligibleVoters",
              "type": "address[]"
            }
          ],
          "internalType": "struct Poll.PollStruct",
          "name": "_poll",
          "type": "tuple"
        }
      ],
      "name": "createPoll",
      "outputs": [],
      "stateMutability": "nonpayable",
      "type": "function"
    },
    {
      "inputs": [
        {
          "internalType": "address",
          "name": "",
          "type": "address"
        },
        {
          "internalType": "uint256",
          "name": "",
          "type": "uint256"
        }
      ],
      "name": "owners",
      "outputs": [
        {
          "internalType": "string",
          "name": "",
          "type": "string"
        }
      ],
      "stateMutability": "view",
      "type": "function"
    },
    {
      "inputs": [],
      "name": "pollCount",
      "outputs": [
        {
          "internalType": "uint256",
          "name": "",
          "type": "uint256"
        }
      ],
      "stateMutability": "view",
      "type": "function"
    },
    {
      "inputs": [
        {
          "internalType": "string",
          "name": "",
          "type": "string"
        }
      ],
      "name": "polls",
      "outputs": [
        {
          "internalType": "address",
          "name": "",
          "type": "address"
        }
      ],
      "stateMutability": "view",
      "type": "function"
    }
  ],
  "bytecode": "0x6080604052348015600f57600080fd5b50600080819055506134ae806100266000396000f3fe608060405234801561001057600080fd5b506004361061004c5760003560e01c80638058316a146100515780639207891d146100815780639b3e27871461009f5780639ea1731c146100cf575b600080fd5b61006b600480360381019061006691906104c1565b6100eb565b604051610078919061054b565b60405180910390f35b610089610134565b604051610096919061057f565b60405180910390f35b6100b960048036038101906100b491906105f2565b61013a565b6040516100c691906106b1565b60405180910390f35b6100e960048036038101906100e49190610a94565b6101f3565b005b6001818051602081018201805184825260208301602085012081835280955050505050506000915054906101000a900473ffffffffffffffffffffffffffffffffffffffff1681565b60005481565b6002602052816000526040600020818154811061015657600080fd5b9060005260206000200160009150915050805461017290610b0c565b80601f016020809104026020016040519081016040528092919081815260200182805461019e90610b0c565b80156101eb5780601f106101c0576101008083540402835291602001916101eb565b820191906000526020600020905b8154815290600101906020018083116101ce57829003601f168201915b505050505081565b60008081548092919061020590610b6c565b91905055506000338260405161021a9061035a565b610225929190610eb8565b604051809103906000f080158015610241573d6000803e3d6000fd5b50905080600183600001516040516102599190610f24565b908152602001604051809103902060006101000a81548173ffffffffffffffffffffffffffffffffffffffff021916908373ffffffffffffffffffffffffffffffffffffffff160217905550600260003373ffffffffffffffffffffffffffffffffffffffff1673ffffffffffffffffffffffffffffffffffffffff168152602001908152602001600020826000015190806001815401808255809150506001900390600052602060002001600090919091909150908161031a91906110e7565b507fb447d309fd3b1a27466cdb08ccc02ee5188e9c71fc58af042bafe3e0bb4512306000548260405161034e9291906111b9565b60405180910390a15050565b612296806111e383390190565b6000604051905090565b600080fd5b600080fd5b600080fd5b600080fd5b6000601f19601f8301169050919050565b7f4e487b7100000000000000000000000000000000000000000000000000000000600052604160045260246000fd5b6103ce82610385565b810181811067ffffffffffffffff821117156103ed576103ec610396565b5b80604052505050565b6000610400610367565b905061040c82826103c5565b919050565b600067ffffffffffffffff82111561042c5761042b610396565b5b61043582610385565b9050602081019050919050565b82818337600083830152505050565b600061046461045f84610411565b6103f6565b9050828152602081018484840111156104805761047f610380565b5b61048b848285610442565b509392505050565b600082601f8301126104a8576104a761037b565b5b81356104b8848260208601610451565b91505092915050565b6000602082840312156104d7576104d6610371565b5b600082013567ffffffffffffffff8111156104f5576104f4610376565b5b61050184828501610493565b91505092915050565b600073ffffffffffffffffffffffffffffffffffffffff82169050919050565b60006105358261050a565b9050919050565b6105458161052a565b82525050565b6000602082019050610560600083018461053c565b92915050565b6000819050919050565b61057981610566565b82525050565b60006020820190506105946000830184610570565b92915050565b6105a38161052a565b81146105ae57600080fd5b50565b6000813590506105c08161059a565b92915050565b6105cf81610566565b81146105da57600080fd5b50565b6000813590506105ec816105c6565b92915050565b6000806040838503121561060957610608610371565b5b6000610617858286016105b1565b9250506020610628858286016105dd565b9150509250929050565b600081519050919050565b600082825260208201905092915050565b60005b8381101561066c578082015181840152602081019050610651565b60008484015250505050565b600061068382610632565b61068d818561063d565b935061069d81856020860161064e565b6106a681610385565b840191505092915050565b600060208201905081810360008301526106cb8184610678565b905092915050565b600080fd5b600080fd5b60008115159050919050565b6106f2816106dd565b81146106fd57600080fd5b50565b60008135905061070f816106e9565b92915050565b600067ffffffffffffffff8211156107305761072f610396565b5b602082029050602081019050919050565b600080fd5b60006060828403121561075c5761075b6106d3565b5b61076660606103f6565b9050600082013567ffffffffffffffff811115610786576107856106d8565b5b61079284828501610493565b600083015250602082013567ffffffffffffffff8111156107b6576107b56106d8565b5b6107c284828501610493565b602083015250604082013567ffffffffffffffff8111156107e6576107e56106d8565b5b6107f284828501610493565b60408301525092915050565b600061081161080c84610715565b6103f6565b9050808382526020820190506020840283018581111561083457610833610741565b5b835b8181101561087b57803567ffffffffffffffff8111156108595761085861037b565b5b8086016108668982610746565b85526020850194505050602081019050610836565b5050509392505050565b600082601f83011261089a5761089961037b565b5b81356108aa8482602086016107fe565b91505092915050565b600067ffffffffffffffff8211156108ce576108cd610396565b5b602082029050602081019050919050565b60006108f26108ed846108b3565b6103f6565b9050808382526020820190506020840283018581111561091557610914610741565b5b835b8181101561093e578061092a88826105b1565b845260208401935050602081019050610917565b5050509392505050565b600082601f83011261095d5761095c61037b565b5b813561096d8482602086016108df565b91505092915050565b6000610100828403121561098d5761098c6106d3565b5b6109986101006103f6565b9050600082013567ffffffffffffffff8111156109b8576109b76106d8565b5b6109c484828501610493565b60008301525060206109d884828501610700565b60208301525060406109ec84828501610700565b6040830152506060610a0084828501610700565b6060830152506080610a14848285016105dd565b60808301525060a0610a28848285016105dd565b60a08301525060c082013567ffffffffffffffff811115610a4c57610a4b6106d8565b5b610a5884828501610885565b60c08301525060e082013567ffffffffffffffff811115610a7c57610a7b6106d8565b5b610a8884828501610948565b60e08301525092915050565b600060208284031215610aaa57610aa9610371565b5b600082013567ffffffffffffffff811115610ac857610ac7610376565b5b610ad484828501610976565b91505092915050565b7f4e487b7100000000000000000000000000000000000000000000000000000000600052602260045260246000fd5b60006002820490506001821680610b2457607f821691505b602082108103610b3757610b36610add565b5b50919050565b7f4e487b7100000000000000000000000000000000000000000000000000000000600052601160045260246000fd5b6000610b7782610566565b91507fffffffffffffffffffffffffffffffffffffffffffffffffffffffffffffffff8203610ba957610ba8610b3d565b5b600182019050919050565b600082825260208201905092915050565b6000610bd082610632565b610bda8185610bb4565b9350610bea81856020860161064e565b610bf381610385565b840191505092915050565b610c07816106dd565b82525050565b610c1681610566565b82525050565b600081519050919050565b600082825260208201905092915050565b6000819050602082019050919050565b60006060830160008301518482036000860152610c658282610bc5565b91505060208301518482036020860152610c7f8282610bc5565b91505060408301518482036040860152610c998282610bc5565b9150508091505092915050565b6000610cb28383610c48565b905092915050565b6000602082019050919050565b6000610cd282610c1c565b610cdc8185610c27565b935083602082028501610cee85610c38565b8060005b85811015610d2a5784840389528151610d0b8582610ca6565b9450610d1683610cba565b925060208a01995050600181019050610cf2565b50829750879550505050505092915050565b600081519050919050565b600082825260208201905092915050565b6000819050602082019050919050565b610d718161052a565b82525050565b6000610d838383610d68565b60208301905092915050565b6000602082019050919050565b6000610da782610d3c565b610db18185610d47565b9350610dbc83610d58565b8060005b83811015610ded578151610dd48882610d77565b9750610ddf83610d8f565b925050600181019050610dc0565b5085935050505092915050565b6000610100830160008301518482036000860152610e188282610bc5565b9150506020830151610e2d6020860182610bfe565b506040830151610e406040860182610bfe565b506060830151610e536060860182610bfe565b506080830151610e666080860182610c0d565b5060a0830151610e7960a0860182610c0d565b5060c083015184820360c0860152610e918282610cc7565b91505060e083015184820360e0860152610eab8282610d9c565b9150508091505092915050565b6000604082019050610ecd600083018561053c565b8181036020830152610edf8184610dfa565b90509392505050565b600081905092915050565b6000610efe82610632565b610f088185610ee8565b9350610f1881856020860161064e565b80840191505092915050565b6000610f308284610ef3565b915081905092915050565b60008190508160005260206000209050919050565b60006020601f8301049050919050565b600082821b905092915050565b600060088302610f9d7fffffffffffffffffffffffffffffffffffffffffffffffffffffffffffffffff82610f60565b610fa78683610f60565b95508019841693508086168417925050509392505050565b6000819050919050565b6000610fe4610fdf610fda84610566565b610fbf565b610566565b9050919050565b6000819050919050565b610ffe83610fc9565b61101261100a82610feb565b848454610f6d565b825550505050565b600090565b61102761101a565b611032818484610ff5565b505050565b5b818110156110565761104b60008261101f565b600181019050611038565b5050565b601f82111561109b5761106c81610f3b565b61107584610f50565b81016020851015611084578190505b61109861109085610f50565b830182611037565b50505b505050565b600082821c905092915050565b60006110be600019846008026110a0565b1980831691505092915050565b60006110d783836110ad565b9150826002028217905092915050565b6110f082610632565b67ffffffffffffffff81111561110957611108610396565b5b6111138254610b0c565b61111e82828561105a565b600060209050601f831160018114611151576000841561113f578287015190505b61114985826110cb565b8655506111b1565b601f19841661115f86610f3b565b60005b8281101561118757848901518255600182019150602085019450602081019050611162565b868310156111a457848901516111a0601f8916826110ad565b8355505b6001600288020188555050505b505050505050565b60006040820190506111ce6000830185610570565b6111db602083018461053c565b939250505056fe608060405234801561001057600080fd5b506040516122963803806122968339818101604052810190610032919061092d565b816000806101000a81548173ffffffffffffffffffffffffffffffffffffffff021916908373ffffffffffffffffffffffffffffffffffffffff1602179055508060000151600190816100859190610ba0565b508060200151600260006101000a81548160ff02191690831515021790555060006003819055507fffffffffffffffffffffffffffffffffffffffffffffffffffffffffffffffff6004819055508060400151156100e95780608001516003819055505b8060600151156100ff578060a001516004819055505b600060058190555060005b8160c00151518110156102795760055460068360c00151838151811061013357610132610c72565b5b60200260200101516000015160405161014c9190610cdd565b90815260200160405180910390208190555060405180606001604052808360c0015183815181106101805761017f610c72565b5b60200260200101516000015181526020018360c0015183815181106101a8576101a7610c72565b5b60200260200101516020015181526020018360c0015183815181106101d0576101cf610c72565b5b60200260200101516040015181525060076000600554815260200190815260200160002060008201518160000190816102099190610ba0565b50602082015181600101908161021f9190610ba0565b5060408201518160020190816102359190610ba0565b509050506000600a60006005548152602001908152602001600020819055506005600081548092919061026790610d23565b9190505550808060010191505061010a565b5060005b8160e001515181101561030d576001600860008460e0015184815181106102a7576102a6610c72565b5b602002602001015173ffffffffffffffffffffffffffffffffffffffff1673ffffffffffffffffffffffffffffffffffffffff16815260200190815260200160002060006101000a81548160ff021916908315150217905550808060010191505061027d565b507fb55e5ee3ad76b1fababdba156ab1087e9fa631d9b8a7c9966f5614605e2449d3600260009054906101000a900460ff1660035460045460405161035493929190610d89565b60405180910390a15050610dc0565b6000604051905090565b600080fd5b600080fd5b600073ffffffffffffffffffffffffffffffffffffffff82169050919050565b60006103a282610377565b9050919050565b6103b281610397565b81146103bd57600080fd5b50565b6000815190506103cf816103a9565b92915050565b600080fd5b6000601f19601f8301169050919050565b7f4e487b7100000000000000000000000000000000000000000000000000000000600052604160045260246000fd5b610423826103da565b810181811067ffffffffffffffff82111715610442576104416103eb565b5b80604052505050565b6000610455610363565b9050610461828261041a565b919050565b600080fd5b600080fd5b600080fd5b600067ffffffffffffffff8211156104905761048f6103eb565b5b610499826103da565b9050602081019050919050565b60005b838110156104c45780820151818401526020810190506104a9565b60008484015250505050565b60006104e36104de84610475565b61044b565b9050828152602081018484840111156104ff576104fe610470565b5b61050a8482856104a6565b509392505050565b600082601f8301126105275761052661046b565b5b81516105378482602086016104d0565b91505092915050565b60008115159050919050565b61055581610540565b811461056057600080fd5b50565b6000815190506105728161054c565b92915050565b6000819050919050565b61058b81610578565b811461059657600080fd5b50565b6000815190506105a881610582565b92915050565b600067ffffffffffffffff8211156105c9576105c86103eb565b5b602082029050602081019050919050565b600080fd5b6000606082840312156105f5576105f46103d5565b5b6105ff606061044b565b9050600082015167ffffffffffffffff81111561061f5761061e610466565b5b61062b84828501610512565b600083015250602082015167ffffffffffffffff81111561064f5761064e610466565b5b61065b84828501610512565b602083015250604082015167ffffffffffffffff81111561067f5761067e610466565b5b61068b84828501610512565b60408301525092915050565b60006106aa6106a5846105ae565b61044b565b905080838252602082019050602084028301858111156106cd576106cc6105da565b5b835b8181101561071457805167ffffffffffffffff8111156106f2576106f161046b565b5b8086016106ff89826105df565b855260208501945050506020810190506106cf565b5050509392505050565b600082601f8301126107335761073261046b565b5b8151610743848260208601610697565b91505092915050565b600067ffffffffffffffff821115610767576107666103eb565b5b602082029050602081019050919050565b600061078b6107868461074c565b61044b565b905080838252602082019050602084028301858111156107ae576107ad6105da565b5b835b818110156107d757806107c388826103c0565b8452602084019350506020810190506107b0565b5050509392505050565b600082601f8301126107f6576107f561046b565b5b8151610806848260208601610778565b91505092915050565b60006101008284031215610826576108256103d5565b5b61083161010061044b565b9050600082015167ffffffffffffffff81111561085157610850610466565b5b61085d84828501610512565b600083015250602061087184828501610563565b602083015250604061088584828501610563565b604083015250606061089984828501610563565b60608301525060806108ad84828501610599565b60808301525060a06108c184828501610599565b60a08301525060c082015167ffffffffffffffff8111156108e5576108e4610466565b5b6108f18482850161071e565b60c08301525060e082015167ffffffffffffffff81111561091557610914610466565b5b610921848285016107e1565b60e08301525092915050565b600080604083850312156109445761094361036d565b5b6000610952858286016103c0565b925050602083015167ffffffffffffffff81111561097357610972610372565b5b61097f8582860161080f565b9150509250929050565b600081519050919050565b7f4e487b7100000000000000000000000000000000000000000000000000000000600052602260045260246000fd5b600060028204905060018216806109db57607f821691505b6020821081036109ee576109ed610994565b5b50919050565b60008190508160005260206000209050919050565b60006020601f8301049050919050565b600082821b905092915050565b600060088302610a567fffffffffffffffffffffffffffffffffffffffffffffffffffffffffffffffff82610a19565b610a608683610a19565b95508019841693508086168417925050509392505050565b6000819050919050565b6000610a9d610a98610a9384610578565b610a78565b610578565b9050919050565b6000819050919050565b610ab783610a82565b610acb610ac382610aa4565b848454610a26565b825550505050565b600090565b610ae0610ad3565b610aeb818484610aae565b505050565b5b81811015610b0f57610b04600082610ad8565b600181019050610af1565b5050565b601f821115610b5457610b25816109f4565b610b2e84610a09565b81016020851015610b3d578190505b610b51610b4985610a09565b830182610af0565b50505b505050565b600082821c905092915050565b6000610b7760001984600802610b59565b1980831691505092915050565b6000610b908383610b66565b9150826002028217905092915050565b610ba982610989565b67ffffffffffffffff811115610bc257610bc16103eb565b5b610bcc82546109c3565b610bd7828285610b13565b600060209050601f831160018114610c0a5760008415610bf8578287015190505b610c028582610b84565b865550610c6a565b601f198416610c18866109f4565b60005b82811015610c4057848901518255600182019150602085019450602081019050610c1b565b86831015610c5d5784890151610c59601f891682610b66565b8355505b6001600288020188555050505b505050505050565b7f4e487b7100000000000000000000000000000000000000000000000000000000600052603260045260246000fd5b600081905092915050565b6000610cb782610989565b610cc18185610ca1565b9350610cd18185602086016104a6565b80840191505092915050565b6000610ce98284610cac565b915081905092915050565b7f4e487b7100000000000000000000000000000000000000000000000000000000600052601160045260246000fd5b6000610d2e82610578565b91507fffffffffffffffffffffffffffffffffffffffffffffffffffffffffffffffff8203610d6057610d5f610cf4565b5b600182019050919050565b610d7481610540565b82525050565b610d8381610578565b82525050565b6000606082019050610d9e6000830186610d6b565b610dab6020830185610d7a565b610db86040830184610d7a565b949350505050565b6114c780610dcf6000396000f3fe608060405234801561001057600080fd5b50600436106100a95760003560e01c80638da5cb5b116100715780638da5cb5b14610156578063995e433914610174578063a9a981a3146101a4578063af640d0f146101c2578063ef0a6930146101e0578063f43b877814610210576100a9565b80633197cbb6146100ae578063341f7b33146100cc5780633477ee2e146100e857806362f269ca1461011a57806378e9792514610138575b600080fd5b6100b661022c565b6040516100c39190610aac565b60405180910390f35b6100e660048036038101906100e19190610c4d565b610232565b005b61010260048036038101906100fd9190610ca9565b6104d3565b60405161011193929190610d55565b60405180910390f35b610122610695565b60405161012f9190610dbc565b60405180910390f35b6101406106a8565b60405161014d9190610aac565b60405180910390f35b61015e6106ae565b60405161016b9190610e18565b60405180910390f35b61018e60048036038101906101899190610ca9565b6106d2565b60405161019b9190610f8b565b60405180910390f35b6101ac61091f565b6040516101b99190610aac565b60405180910390f35b6101ca610925565b6040516101d79190610fad565b60405180910390f35b6101fa60048036038101906101f59190610fcf565b6109b3565b6040516102079190610aac565b60405180910390f35b61022a60048036038101906102259190610ca9565b6109e1565b005b60045481565b80600354811015610278576040517f08c379a000000000000000000000000000000000000000000000000000000000815260040161026f90611064565b60405180910390fd5b6004548111156102bd576040517f08c379a00000000000000000000000000000000000000000000000000000000081526004016102b4906110d0565b60405180910390fd5b600860003373ffffffffffffffffffffffffffffffffffffffff1673ffffffffffffffffffffffffffffffffffffffff16815260200190815260200160002060009054906101000a900460ff16610349576040517f08c379a000000000000000000000000000000000000000000000000000000000815260040161034090611162565b60405180910390fd5b60001515600960003373ffffffffffffffffffffffffffffffffffffffff1673ffffffffffffffffffffffffffffffffffffffff16815260200190815260200160002060009054906101000a900460ff161515146103dc576040517f08c379a00000000000000000000000000000000000000000000000000000000081526004016103d3906111f4565b60405180910390fd5b60006006846040516103ee9190611250565b90815260200160405180910390205490506000600a6000838152602001908152602001600020549050808061042290611296565b9150506001600960003373ffffffffffffffffffffffffffffffffffffffff1673ffffffffffffffffffffffffffffffffffffffff16815260200190815260200160002060006101000a81548160ff02191690831515021790555080600a6000848152602001908152602001600020819055507fcbb901adca9be6fa979eb3013c899a7263fc9c5ecbe525a15ce38c568ca30307856040516104c49190610fad565b60405180910390a15050505050565b60076020528060005260406000206000915090508060000180546104f69061130d565b80601f01602080910402602001604051908101604052809291908181526020018280546105229061130d565b801561056f5780601f106105445761010080835404028352916020019161056f565b820191906000526020600020905b81548152906001019060200180831161055257829003601f168201915b5050505050908060010180546105849061130d565b80601f01602080910402602001604051908101604052809291908181526020018280546105b09061130d565b80156105fd5780601f106105d2576101008083540402835291602001916105fd565b820191906000526020600020905b8154815290600101906020018083116105e057829003601f168201915b5050505050908060020180546106129061130d565b80601f016020809104026020016040519081016040528092919081815260200182805461063e9061130d565b801561068b5780601f106106605761010080835404028352916020019161068b565b820191906000526020600020905b81548152906001019060200180831161066e57829003601f168201915b5050505050905083565b600260009054906101000a900460ff1681565b60035481565b60008054906101000a900473ffffffffffffffffffffffffffffffffffffffff1681565b606081600260009054906101000a900460ff1661072e57600454811161072d576040517f08c379a0000000000000000000000000000000000000000000000000000000008152600401610724906113b0565b60405180910390fd5b5b60008054906101000a900473ffffffffffffffffffffffffffffffffffffffff1673ffffffffffffffffffffffffffffffffffffffff163373ffffffffffffffffffffffffffffffffffffffff16146107bc576040517f08c379a00000000000000000000000000000000000000000000000000000000081526004016107b390611442565b60405180910390fd5b600060055467ffffffffffffffff8111156107da576107d9610af6565b5b60405190808252806020026020018201604052801561081357816020015b610800610a79565b8152602001906001900390816107f85790505b50905060005b60055481101561091457604051806040016040528060076000848152602001908152602001600020600001805461084f9061130d565b80601f016020809104026020016040519081016040528092919081815260200182805461087b9061130d565b80156108c85780601f1061089d576101008083540402835291602001916108c8565b820191906000526020600020905b8154815290600101906020018083116108ab57829003601f168201915b50505050508152602001600a6000848152602001908152602001600020548152508282815181106108fc576108fb611462565b5b60200260200101819052508080600101915050610819565b508092505050919050565b60055481565b600180546109329061130d565b80601f016020809104026020016040519081016040528092919081815260200182805461095e9061130d565b80156109ab5780601f10610980576101008083540402835291602001916109ab565b820191906000526020600020905b81548152906001019060200180831161098e57829003601f168201915b505050505081565b6006818051602081018201805184825260208301602085012081835280955050505050506000915090505481565b60008054906101000a900473ffffffffffffffffffffffffffffffffffffffff1673ffffffffffffffffffffffffffffffffffffffff163373ffffffffffffffffffffffffffffffffffffffff1614610a6f576040517f08c379a0000000000000000000000000000000000000000000000000000000008152600401610a6690611442565b60405180910390fd5b8060048190555050565b604051806040016040528060608152602001600081525090565b6000819050919050565b610aa681610a93565b82525050565b6000602082019050610ac16000830184610a9d565b92915050565b6000604051905090565b600080fd5b600080fd5b600080fd5b600080fd5b6000601f19601f8301169050919050565b7f4e487b7100000000000000000000000000000000000000000000000000000000600052604160045260246000fd5b610b2e82610ae5565b810181811067ffffffffffffffff82111715610b4d57610b4c610af6565b5b80604052505050565b6000610b60610ac7565b9050610b6c8282610b25565b919050565b600067ffffffffffffffff821115610b8c57610b8b610af6565b5b610b9582610ae5565b9050602081019050919050565b82818337600083830152505050565b6000610bc4610bbf84610b71565b610b56565b905082815260208101848484011115610be057610bdf610ae0565b5b610beb848285610ba2565b509392505050565b600082601f830112610c0857610c07610adb565b5b8135610c18848260208601610bb1565b91505092915050565b610c2a81610a93565b8114610c3557600080fd5b50565b600081359050610c4781610c21565b92915050565b60008060408385031215610c6457610c63610ad1565b5b600083013567ffffffffffffffff811115610c8257610c81610ad6565b5b610c8e85828601610bf3565b9250506020610c9f85828601610c38565b9150509250929050565b600060208284031215610cbf57610cbe610ad1565b5b6000610ccd84828501610c38565b91505092915050565b600081519050919050565b600082825260208201905092915050565b60005b83811015610d10578082015181840152602081019050610cf5565b60008484015250505050565b6000610d2782610cd6565b610d318185610ce1565b9350610d41818560208601610cf2565b610d4a81610ae5565b840191505092915050565b60006060820190508181036000830152610d6f8186610d1c565b90508181036020830152610d838185610d1c565b90508181036040830152610d978184610d1c565b9050949350505050565b60008115159050919050565b610db681610da1565b82525050565b6000602082019050610dd16000830184610dad565b92915050565b600073ffffffffffffffffffffffffffffffffffffffff82169050919050565b6000610e0282610dd7565b9050919050565b610e1281610df7565b82525050565b6000602082019050610e2d6000830184610e09565b92915050565b600081519050919050565b600082825260208201905092915050565b6000819050602082019050919050565b600082825260208201905092915050565b6000610e7b82610cd6565b610e858185610e5f565b9350610e95818560208601610cf2565b610e9e81610ae5565b840191505092915050565b610eb281610a93565b82525050565b60006040830160008301518482036000860152610ed58282610e70565b9150506020830151610eea6020860182610ea9565b508091505092915050565b6000610f018383610eb8565b905092915050565b6000602082019050919050565b6000610f2182610e33565b610f2b8185610e3e565b935083602082028501610f3d85610e4f565b8060005b85811015610f795784840389528151610f5a8582610ef5565b9450610f6583610f09565b925060208a01995050600181019050610f41565b50829750879550505050505092915050565b60006020820190508181036000830152610fa58184610f16565b905092915050565b60006020820190508181036000830152610fc78184610d1c565b905092915050565b600060208284031215610fe557610fe4610ad1565b5b600082013567ffffffffffffffff81111561100357611002610ad6565b5b61100f84828501610bf3565b91505092915050565b7f5468697320706f6c6c20686173206e6f74207374617274656420796574000000600082015250565b600061104e601d83610ce1565b915061105982611018565b602082019050919050565b6000602082019050818103600083015261107d81611041565b9050919050565b7f5468697320706f6c6c2068617320616c726561647920656e6465640000000000600082015250565b60006110ba601b83610ce1565b91506110c582611084565b602082019050919050565b600060208201905081810360008301526110e9816110ad565b9050919050565b7f4f6e6c7920656c696769626c6520766f746572732061726520616c6c6f77656460008201527f20746f2061636365737320746869732066656174757265000000000000000000602082015250565b600061114c603783610ce1565b9150611157826110f0565b604082019050919050565b6000602082019050818103600083015261117b8161113f565b9050919050565b7f596f752063616e206f6e6c792075736520746869732066656174757265206f6e60008201527f6365000000000000000000000000000000000000000000000000000000000000602082015250565b60006111de602283610ce1565b91506111e982611182565b604082019050919050565b6000602082019050818103600083015261120d816111d1565b9050919050565b600081905092915050565b600061122a82610cd6565b6112348185611214565b9350611244818560208601610cf2565b80840191505092915050565b600061125c828461121f565b915081905092915050565b7f4e487b7100000000000000000000000000000000000000000000000000000000600052601160045260246000fd5b60006112a182610a93565b91507fffffffffffffffffffffffffffffffffffffffffffffffffffffffffffffffff82036112d3576112d2611267565b5b600182019050919050565b7f4e487b7100000000000000000000000000000000000000000000000000000000600052602260045260246000fd5b6000600282049050600182168061132557607f821691505b602082108103611338576113376112de565b5b50919050565b7f5265616c2074696d652074616c6c792069732063757272656e746c79206e6f7460008201527f20617661696c61626c6500000000000000000000000000000000000000000000602082015250565b600061139a602a83610ce1565b91506113a58261133e565b604082019050919050565b600060208201905081810360008301526113c98161138d565b9050919050565b7f4f6e6c79206f776e657220697320616c6c6f77656420746f206163636573732060008201527f7468697320666561747572650000000000000000000000000000000000000000602082015250565b600061142c602c83610ce1565b9150611437826113d0565b604082019050919050565b6000602082019050818103600083015261145b8161141f565b9050919050565b7f4e487b7100000000000000000000000000000000000000000000000000000000600052603260045260246000fdfea2646970667358221220f4fb740de4a0acc76c5481a7154114c691f20371555d9a2d10052322cb32591864736f6c634300081c0033a264697066735822122051e5c2bb71466addccbbae4aa1419a21d658758ad3536bddc3b2839d0d46c3df64736f6c634300081c0033",
  "linkReferences": {},
  "deployedLinkReferences": {}
}